:20209B00AF83E582900100F0EFA3F0900102E4F0A3F0A3F0A3F0900100E0FEA3E0FF9008E0
:2020BB00A5EEF0EFA3F09003E8C007C0061251F7AC82AD83D006D007900102E0F8A3E0F9AC
:2020DB00A3E0FAA3E0FBC006C0077E007F00C3E89CE99DEA9EEB9FD007D0065023900102CE
:2020FB00E0FAA3E0FBA3E0FCA3E0FD90010274012AF0E43BA3F0E43CA3F0E43DA3F0809E15
:20211B0022900166E4F075821F122AA5E5824408FF900150741FF0900151EFF09000000257
:20213B002662AF83E582900108F0EFA3F0900108E0FEA3E0FF8E059001507404F0900151A1
:20215B00EDF0900000C007C006122662D006D0078F069001507405F0900151EEF0900000F4
:20217B00122662900106E0FEA3E0FF8E059001507406F0900151EDF0900000C007C00612E7
:20219B002662D006D0078F069001507407F0900151EEF0900000022662AF83E58290010A00
:2021BB00F0EFA3F090010AE0FEA3E0FF7C007D00C3EC9EED9F5041900166E4F075821FC093
:2021DB0007C006C005C004122AA5E582D004D005D006D00720E30475820122900001C00777
:2021FB00C006C005C00412209BD004D005D006D0070CBC00BB0D80B875820022900166E496
:20221B00F075821D122AA5E582035401B401009200E433F58222AFF0AE83E58290010CF044
:20223B00EEA3F0EFA3F090010CE0FDA3E0FEA3E0FF8D828E838FF0125C87FC90010C740161
:20225B002DF0E43EA3F0EFA3F09001507401F0900151ECF090000312266290010CE0FDA3C1
:20227B00E0FEA3E0FF8D828E838FF0125C87FC90010C74012DF0E43EA3F0EFA3F09001500C
:20229B00E4F0900151ECF090000312266290010CE0FDA3E0FEA3E0FF8D828E838FF0125CDA
:2022BB0087FC90010C74012DF0E43EA3F0EFA3F09001507403F0900151ECF0900003122649
:2022DB006290010CE0FDA3E0FEA3E0FF8D828E838FF0125C87FC90010C74012DF0E43EA380
:2022FB00F0EFA3F09001507402F0900151ECF090000312266290010CE0FDA3E0FEA3E0FFA2
:20231B008D828E838FF0125C87FC90010C74012DF0E43EA3F0EFA3F09001507405F09001D1
:20233B0051ECF090000312266290010CE0FDA3E0FEA3E0FF8D828E838FF0125C87FD900189
:20235B00507404F0900151EDF090000302266290010F7402F090011023F090011174A3F06B
:20237B00900112743CF0900113744DF09001147450F090011574FFF0900116F0900117F019
:20239B00900118F0900119F090011AF090011B74C0F090011C74A8F090011D7401F0900127
:2023BB001E7464F090011F74C0F090012074A8F09001217401F0900122F0900123740EF0AB
:2023DB007E007F00C3EE9406EF6480948050488E05ED04FC3395E0FBEC2423FCEB3401FBAE
:2023FB00EE2415F582EF3401F583E08C828B83F074072DFD3395E0FCED2423FDEC3401FC05
:20241B00EE240FF582EF3401F583E08D828C83F00EBE00B00F80AD9001307408F0900131D8
:20243B007406F0900132E4F090013304F09001347408F0900135E4F09001367406F090013B
:20245B00377404F0900138E4F090013904F07E007F00C3EE9406EF6480948050298E0574B8
:20247B00172DFD3395E0FCED2423FDEC3401FCEE240FF582EF3401F583E08D828C83F00EDE
:20249B00BE00CF0F80CC7E007F00C3EE9404EF6480948050298E05741D2DFD3395E0FCEDB4
:2024BB002423FDEC3401FCEE241BF582EF3401F583E08D828C83F00EBE00CF0F80CC7F00FD
:2024DB00BF060050198F0674212EFE3395E0FDEE2423F582ED3401F583E4F00F80E27E00AF
:2024FB007F00C3EE9404EF6480948050298E0574272DFD3395E0FCED2423FDEC3401FCEE61
:20251B00241FF582EF3401F583E08D828C83F00EBE00CF0F80CC900158E4F0741CA3F090F6
:20253B00015A7423F07401A3F0E4A3F090002B12280A900106742AF0741CA3F0901C00121A
:20255B00213D12211C9001F41221B4E5826033122217E582601674E2C0E0745CC0E07480CB
:20257B00C0E0125265158115811581227403C0E0745DC0E07480C0E01252651581158115CD
:18259B0081227431C0E0745DC0E07480C0E0125265158115811581228E
:205CA7000A496E76616C6964204275666665722053697A652E2042756666657220657863CF
:205CC700656564732076616C696420616464726573732072616E67652E0A0041525020720C
:205CE7006571756573742073656E74207375636365737366756C6C792E0A0D00415250209F
:205D07007472616E736D697373696F6E206661696C65642E20436865636B206572726F7257
:205D270020666C6167732E0A0D005472616E736D697373696F6E2074696D656F75742E206B
:205D4700454E4332384A3630206D6179206E6F742062652066756E6374696F6E696E6720A9
:0D5D6700636F72726563746C792E0A0D0013
:2025B300C29175821E123141123150AF82D291430780C29175825EC007123141D0078F8250
:2025D300123141D29122E58290014EF0C29175821F123141123150AF82D2915307FC9001AE
:2025F3004FEFF090014EE0FE24FC4030EE2E902605738006800B8012801990014FEFF08088
:202613003090014F74014FF0802790014F74024FF0801E90014F74034FF080157474C0E056
:20263300745DC0E07480C0E01252651581158115817F00BF100050030F80F8C29175825F26
:2026530012314190014FE0F582123141D29122AF83E582900152F0EFA3F0900150E0244090
:20267300F0900152E0FEA3E08E821225D9C291900150E0F582123141900151E0F582123168
:2026930041D29122AF83E582900156F0EFA3F0900156E0FEA3E0FFC374FF9E741F9F4015CD
:2026B300900154E0FCA3E0FD8C028D03C374FF9A741F9B502A900154E0C0E0A3E0C0E09018
:2026D3000156E0C0E0A3E0C0E0747FC0E0745DC0E07480C0E0125265E58124F9F58122531E
:2026F30006FE900156EEF0EFA3F0900156E0FEA3E0FF8E03900150E4F0900151EBF09000A2
:2027130000C007C006C005C004C003122662D003D004D005D006D0078F029001507401F033
:20273300900151EAF0900000C007C006C005C004C003C002122662D002D003900150740803
:20275300F0900151EBF0900000C003C002122662D0029001507409F0900151EAF09000009E
:20277300C002122662D002D003D0048C01900150740AF0900151E9F0900000C004C003C003
:2027930002122662D002D003D004D0058D01900150740BF0900151E9F0900000C005C0048A
:2027B300C003C002122662D002D003900150740CF0900151EBF0900000C002122662D00276
:2027D300900150740DF0900151EAF0900000122662D004D005D006D007C004C005C006C049
:2027F3000774B0C0E0745DC0E07480C0E0125265E58124F9F58122AF83E58290015DF0EFAC
:20281300A3F090015DE0FEA3E0FFC3EE9401EF64809480501AC006C00774DFC0E0745DC01C
:20283300E07480C0E0125265E58124FBF58122900158E0FCA3E0FD8C028D03C374FF9A7484
:202853001F9B501AC004C00574FFC0E0745DC0E07480C0E0125265E58124FBF5812274E462
:202873002B50138E008F01E82AFAE93BFBC374FF9A741F9B502490015DE0C0E0A3E0C0E06B
:20289300C004C0057419C0E0745EC0E07480C0E0125265E58124F9F58122C374019E7480BB
:2028B3008FF063F08095F0500BC005C0041225B3D004D0058D079001507403F0900151EF0A
:2028D300F0900000C004122662D0049001507402F0900151ECF0900000122662C2917582BA
:2028F3007A12314190015DE0FEA3E0FF90015AE0FBA3E0FCA3E0FD79007A00C3E99EEA6429
:20291300808FF063F08095F050378B828C838DF0125C87F8A3AB82AC838882C007C006C0EA
:2029330005C004C003C002C001123141D001D002D003D004D005D006D00709B900BD0A801C
:20295300BAD29122AF83E582900164F0EFA3F0900164E0FEA3E0FFC3EE9401EF64809480A3
:20297300501DC006C00774DFC0E0745DC0E07480C0E0125265E58124FBF58190000022904C
:20299300015FE0FCA3E0FD8C028D03C374FF9A741F9B501DC004C00574FFC0E0745DC0E0D2
:2029B3007480C0E0125265E58124FBF581900000228E008F01E82AFAE93BFBC374FF9A746D
:2029D3001B9B5021C006C007C004C0057445C0E0745EC0E07480C0E0125265E58124F9F507
:2029F3008190000022C374019E74808FF063F08095F0500BC005C0041225B3D004D0058DEC
:202A1300079001507401F0900151EFF0900000C004122662D004900150E4F0900151ECF060
:202A3300900000122662C29175823A123141900164E0FEA3E0FF900161E0FBA3E0FCA3E02D
:202A5300FD79007A00C3E99EEA64808FF063F08095F05037C007C006C005C004C003C00262
:202A7300C001123150A882D001D002D003D004D005D006D0078B828C838DF0E8124F98A3DC
:202A9300AB82AC8309B900BD0A80BAD2918E828F8322E582900167F0E0FF24E050197471DD
:202AB300C0E0745EC0E07480C0E012526515811581158175820022900166E0F582C0071292
:202AD30025D9D007C2918F82C007123141123150AE82D007D2918E047D007B00C006C0044E
:202AF300C005C007C00374A9C0E0745EC0E07480C0E0125265E58124F9F581D0068E8222E7
:202B13009001667403F075820A122AA5E582900168F0900168E030E0149001667403F07542
:202B3300820A122AA5E582900168F080E522E582900169F0E0FF9001507414F0900151EFE4
:202B5300F0900002C0071226629001507412F09001517401F0900002122662122B139001D4
:202B7300507412F0900151E4F09000021226629001667402F0758218122AA5AE827D009010
:202B930001667402F0758219C006C005122AA5AC82D005D006D0078C037C00EE2CFEED3BDE
:202BB300FDC006C005C006C005C007C00474CCC0E0745EC0E07480C0E0125265E58124F932
:202BD300F581D005D0068E828D8322E58290016CF0E0FF9001507414F0900151EFF09000A2
:202BF30002C00712266290016AE0FDA3E0FE8D049001507416F0900151ECF0900002C00604
:202C1300C005122662D005D0068E049001507417F0900151ECF0900002C006C00512266234
:202C3300D005D006D0077C00C005C006C007C00474F4C0E0745EC0E07480C0E0125265E5B1
:202C53008124F9F58122E58290016EF0E0FF24E05019C0077471C0E0745EC0E07480C0E037
:202C7300125265158115811581D00790016DE0F582C0071225D9D007C2918F8212314112E2
:202C93003150AF82D2918F8222C2917582FF123141D29122AFF0AE83E58290016FF0EEA3CF
:202CB300F0EFA3F0122C9C900166E4F075821D122AA5E58230E0F090015474FFF0741BA314
:202CD300F09000001226979001507404F0900151E4F09000001226629001507405F090018E
:202CF30051741CF09000001226629001507406F090015174FFF090000012266290015074B7
:202D130007F0900151741FF09000001226629001507418F090015174B1F09000011226629B
:202D33009001507408F0900151743FF09000011226629001507409F09001517430F090002F
:202D5300011226629001507410F090015174F9F09000011226629001507411F0900151745A
:202D7300F7F09000011226629001667402F0758200122AA5E5824401FF900150E4F0900108
:202D930051EFF09000021226629001507402F09001517433F090000212266290015074067D
:202DB300F09001517412F09000021226629001507407F0900151740CF09000021226629032
:202DD30001507404F09001517412F09000021226629001507403F09001517440F090000243
:202DF300122662900150740AF090015174DCF0900002122662900150740BF09001517405DE
:202E1300F090000212266290016FE0FDA3E0FEA3E0FF74052DF508E43EF5098F0A85088238
:202E3300850983850AF0125C87F99001507401F0900151E9F0900003C007C006C0051226E3
:202E530062D005D006D00774042DF50BE43EF50C8F0D850B82850C83850DF0125C87FB90EF
:202E73000150E4F0900151EBF0900003C007C006C005122662D005D006D00774032DF50EB5
:202E9300E43EF50F8F10850E82850F838510F0125C87F99001507403F0900151E9F0900028
:202EB30003C007C006C005122662D005D006D00774022DF511E43EF5128F1385118285126B
:202ED300838513F0125C87FB9001507402F0900151EBF0900003C007C006C005122662D091
:202EF30005D006D00774012DFAE43EFB8F048A828B838CF0125C87F99001507405F0900162
:202F130051E9F0900003C007C006C005C004C003C002122662D002D003D004D005D006D0B8
:202F3300078D828E838FF0125C87F99001507404F0900151E9F0900003C007C006C005C041
:202F530004C003C00212266290016AE4F004A3F0758200122BDE90016AE4F004A3F0758266
:202F730010122BDE900150741BF090015174C0F0900000122662900150741FF090015174C9
:202F930004F090000012266290016D7403F0758212122C59741DC0E0745FC0E07480C0E0C3
:202FB300125265158115811581D002D003D004D005D006D007850882850983850AF0125C6B
:202FD30087F98908750900850B82850C83850DF0125C87F9890B750C00850E82850F8385F3
:202FF30010F0125C87F9890E750F008511828512838513F0125C87F879008A828B838CF0FF
:20301300125C87FA7C008D828E838FF0125C87FD7F00C008C009C00BC00CC00EC00FC0009D
:20303300C001C002C004C005C0077441C0E0745FC0E07480C0E0125265E58124F1F5812272
:20305300E582900173F0E04480FFC2918F82123141900172E0F582123141D29122E582901D
:1A3073000175F0E044A0FFC2918F82123141900174E0F582123141D29122CD
:205D740077726F6E672062616E6B000A496E76616C6964204275666665722052616E6765CE
:205D94003A205374617274203078253034582C20456E64203078253034580A000A427566A1
:205DB40066657220496E697469616C697A65643A205374617274203078253034582C20455A
:205DD4006E64203078253034580A000A0D496E76616C6964206E756D626572206F6620622C
:205DF400797465733A2025640A0D000A0D496E76616C696420616464726573733A2025303D
:205E140034580A0D000A496E76616C696420545820416464726573733A20537461727420C0
:205E34003078253034582C2053697A652025640A000A496E76616C69642052582041646467
:205E5400726573733A205374617274203078253034582C2053697A652025640A000A496E05
:205E740076616C696420616464726573733A204D414320726567697374657220616464728D
:205E94006573732072616E6765205B302C20307831465D0A00526561643A20416464726543
:205EB4007373203078253032582C2044617461203078253032580A0050485920526561643D
:205ED4003A2041646472657373203078253032582C2044617461203078253034580A0D0061
:205EF4005048592057726974653A2041646472657373203078253032582C204461746120C5
:205F14003078253034580A0D000A454E4332384A363020496E697469616C697A6174696F59
:205F34006E20436F6D706C6574652E0A004D414320416464726573733A20253032583A25FF
:195F54003032583A253032583A253032583A253032583A253032580A000C
:0320000002203487
:0320980002200320
:0320030002309B0D
:20308D00D2DE43D90222438F0522538FFA229001767402F090017723F090017874A3F09014
:2030AD000179743CF090017A744DF090017B7450F090017C74FFF090017DF090017EF09070
:2030CD00017FF0900180F0900181F090018274C0F090018374A8F09001847401F090018589
:2030ED007464F090018674C0F090018774A8F09001887401F0900189F0123132746DC0E01E
:20310D00745FC0E07480C0E012526515811581158112308D438F0590017675F000122CA719
:05312D00124D9280FB31
:175F6D000A57656C636F6D6520746F2053657269616C494F210A0001
:20313200D29175C30043C32043C31043C34022E58290018AF0E0F5C5E5C430E7FB2275C51B
:10315200FFE5C430E7FB90018BE5C5F0E0F5822284
:20316200AFF0AE83E58290018EF0EEA3F0EFA3F090018CE0FEA3E0FF8E04741C2FFD1CBC61
:20318200FF011DC374FF9C741F9D50167484C0E0745FC0E07480C0E01252651581158115FF
:2031A20081228E04741C2FFD1CBCFF011D90018EE0F9A3E0FAA3E0FB900158E4F0741CA344
:2031C200F090015AE9F0EAA3F0EBA3F08E828F83C005C00412280AD004D005900106ECF033
:2031E200EDA3F0901C0012213D12211C9001F41221B4E5826033122217E582601674BFC061
:20320200E0745FC0E07480C0E01252651581158115812274E0C0E0745FC0E07480C0E0120B
:1F322200526515811581158122740EC0E07460C0E07480C0E0125265158115811581221B
:205F84000A496E76616C6964204275666665722053697A652E2042756666657220657863EF
:205FA400656564732076616C696420616464726573732072616E67652E0A00544350207228
:205FC4006571756573742073656E74207375636365737366756C6C792E0A0D0054435020BB
:205FE4007472616E736D697373696F6E206661696C65642E20436865636B206572726F7278
:2060040020666C6167732E0A0D005472616E736D697373696F6E2074696D656F75742E208B
:20602400454E4332384A3630206D6179206E6F742062652066756E6374696F6E696E6720C9
:0D604400636F72726563746C792E0A0D0033
:20324100AF83E582900191F0EFA3F03099FD900191E0FEA3E0FF8E99C2998E828F83221022
:20326100980280FBAE997F008E828F8322AFF0AE83E582900193F0EEA3F0EFA3F0900193BC
:20328100E0FDA3E0FEA3E0FF7B007C008D828E838FF0125C87FA60360DBD00010E90019335
:2032A100EDF0EEA3F0EFA3F08A017A0089828A83C007C006C005C004C003123241D003D00F
:2032C10004D005D006D0070BBB00C10C80BE900193EDF0EEA3F0EFA3F00BBB00010C8B82B2
:2032E1008C8322AFF0AE83E582900196F0EEA3F0EFA3F0900199E4F0A3F0900196E0FDA313
:20330100E0FEA3E0FF8D028E038F048D478E488F4978007900C002C003C004E82547FAE9A6
:203321003548FBAC498A828B838CF0125C87F54AD004D003D002E54A7003023492C002C0F0
:2033410003C004854A4B754C0090019BE54BF0E54CA3F0900199E0FBA3E0C454F0CBC4CBD0
:203361006BCB54F0CB6BFC900199EBF0ECA3F0C3E54B9430E54C64809480D004D003D002C3
:20338100403F7439954B7480854CF063F08095F0402FC002C003C004E54B24D0F54BE54CC6
:2033A10034FFF54C900199E0FAA3E0FC900199E54B2AF0E54C3CA3F0D004D003D0020234F2
:2033C1008A90019BE0F54BA3E0F54CC3E54B9441E54C64809480404E7446954B7480854C74
:2033E100F063F08095F0403EC005C006C007E82AFDE93BFE8C078D828E838FF0125C877FDD
:203401000024C9F54BEF34FFF54C900199E0FEA3E0FF900199E54B2EF0E54C3FA3F0D0073F
:20342100D006D005806390019BE0F54BA3E0F54CC3E54B9461E54C64809480404C746695E1
:203441004B7480854CF063F08095F0403CC002C003C004E82DFAE93EFB8F048A828B838CE4
:20346100F0125C877C0024A9F54BEC34FFF54C900199E0FBA3E0FC900199E54B2BF0E54C53
:203481003CA3F0D004D003D00208B8000109023316900199E0FEA3E08E82F583227E007F9C
:2034A10000C007C006123260AC82D006D007BC0A02803ABC0D028035C3EE9409EF64809448
:2034C10080502A8C037D008B828D83C007C006C004123241D004D006D007EE249DF582EF5C
:2034E1003401F583ECF00EBE00B70F80B4EE249DF582EF3401F583E4F090019DF5F012328F
:20350100E4AE82AF83C007C0067451C0E07460C0E01250EE15811581D006D0078E828F83B3
:013521002287
:036051000A0D0035
:0B208D0090079FE4F0A3F09007A1F083
:2035220090078B7402F090078C23F090078D74A3F090078E743CF090078F744DF0900790DD
:203542007450F090079174FFF0900792F0900793F0900794F0900795F0900796F090079775
:2035620074C0F090079874A8F09007997401F090079A7464F090079B74C0F090079C74A8B7
:20358200F090079D7401F090079EF09007A2E4F0A3F09007A1E0700302360D90079FE0FEF7
:2035A200A3E090079FE0F5F0A3E045F07026900150740CF090015174FFF09000001226627D
:2035C200900150740DF0900151741BF090000012266280321E900150740CF0900151EEF02B
:2035E20090000012266290079FE0FEA3E0FF1EBEFF011F8F06900150740DF0900151EEF067
:203602009000001226629007A1E4F090016D7401F0758219122C59E582700302373E900780
:203622009FE0FEA3E0900150E4F0900151EEF090000012266290079FE0A3E0FE90015074FD
:2036420001F0900151EEF090000012266290079FE0FEA3E0FF90015FEEF0EFA3F0900161B5
:2036620074A4F07407A3F0E4A3F090000612295790079FE0FEA3E0FF74062EFEE43FFF90A5
:2036820007AAEEF0EFA3F09007A4E0FEA3E0FF90079FEEF0EFA3F09007A6E0FEA3E0FFEE5B
:2036A20024FCFEEF34FFFF9007A2EEF0EFA3F0C374DB9E74059F500A9007A274DBF074051D
:2036C200A3F09007A8E0FEA3E0EE20E7099007A2E4F0A3F0802C9007A2E0FEA3E0FF90073B
:2036E200AAE0FCA3E0FD90015FECF0EDA3F090016174A7F07401A3F0E4A3F08E828F8312C6
:2037020029579007A2E0FEA3E0FFEE24A7F582EF3401F583E4F09007A104F090016DE4F0F0
:2037220075821E122C59E5824440FF900150741EF0900151EFF09000001226629007A2E08A
:20374200FEA3E08E82F583229007AC7402F09007AD23F09007AE74A3F09007AF743CF0907A
:2037620007B0744DF09007B17450F09007B274FFF09007B3F09007B4F09007B5F09007B639
:20378200F09007B7F09007B874C0F09007B974A8F09007BA7401F09007BB7464F09007BC07
:2037A20074C0F09007BD74A8F09007BE7401F09007BFF07454C0E07460C0E07480C0E01201
:2037C200526515811581158190089D74A7F07401A3F0E4A3F09008A0742AF0E4A3F09001E1
:2037E200A8F5F0124FB39001A7740EF090089174AEF07401A3F0E4A3F09008947406F0E448
:20380200A3F09001A8F5F0124EFC90089174ACF07407A3F0E4A3F09008947406F0E4A3F0CE
:203822009001AEF5F0124EFC9001BD7402F090089174BEF07401A3F0E4A3F09008947406E2
:20384200F0E4A3F09001C8F5F0124EFC90089174C4F07401A3F0E4A3F09008947404F0E41D
:20386200A3F09001CEF5F0124EFC90089174ACF07407A3F0E4A3F09008947406F0E4A3F048
:203882009001BEF5F0124EFC90089174B8F07407A3F0E4A3F09008947404F0E4A3F0900130
:2038A200C4F5F0124EFC90018C742BF0E4A3F09001A7F5F0023162AFF0AE83E5829007C09E
:2038C200F0EEA3F0EFA3F09007C0E0FDA3E0FEA3E0FF74182DFAE43EFB8F048A828B838CB3
:2038E200F0E4124F9874192DFAE43EFB8F048A828B838CF0E4124F989007C3F0A3F0A3F0B2
:20390200A3F09007C7740EF0E4A3F09007C7E0FBA3E0FC8B018C02C3E99422EA94004003D6
:203922000239A6EB2DFBEC3EF88F048B8288838CF0125C87FB7C008B488C47740129F8E4BC
:203942003AFCE82DF8EC3EFC8F0388828C838BF0125C87F87C00E5484204C005C006C007A8
:203962009007C3E0F549A3E0F54AA3E0F54BA3E0F54C7E007F009007C3E82549F0EC354A7C
:20398200A3F0EE354BA3F0EF354CA3F0740229F9E43AFA9007C7E9F0EAA3F0D007D006D0AD
:2039A2000502390D9007C3E0FCA3E0FDA3E0FEA3E0FF8E498F4AE4F54BF54CE549454A45E8
:2039C2004B454C60208C008D017A007B009007C3E54928F0E54A39A3F0E54B3AA3F0E54CB1
:2039E2003BA3F080BFECF4FCEDF4FD9007C0E0FBA3E0FEA3E0FF74182BF549E43EF54A8FE4
:203A02004B8D02854982854A83854BF0EA124F9874192BFBE43EFE8B828E838FF0EC024FD8
:203A220098AFF0AE83E5829007C9F0EEA3F0EFA3F09007C9E0FDA3E0FEA3E0FF74322DFA55
:203A4200E43EFB8F048A828B838CF0E4124F9874332DFAE43EFB8F048A828B838CF0E41237
:203A62004F9874102DFAE43EFB8F048A828B838CF0125C87FC7A0074112DF8E43EF98F03AA
:203A8200888289838BF0125C877B004202EB4204EA24ECFAEC34FFFC9007CCE4F0A3F0A332
:203AA200F0A3F08D488E498F4AFBBB0400505BC002C0048B007900741A28F8E439F9E8253C
:203AC20048F8E93549F9AC4A888289838CF0125C87F5479007CCE0F54BA3E0F54CA3E0F5CC
:203AE2004DA3E0F54EAC477D007E007F009007CCEC254BF0ED354CA3F0EE354DA3F0EF356D
:203B02004EA3F00BD004D00280A09007C9E0F548A3E0F549A3E0F54A7B00BB0400505BC04C
:203B220002C0048B007900741E28F8E439F9E82548F8E93549F9AC4A888289838CF0125C4E
:203B420087F54B9007CCE0F54FA3E0F550A3E0F551A3E0F552AC4B7D007E007F009007CCE6
:203B6200EC254FF0ED3550A3F0EE3551A3F0EF3552A3F00BD004D00280A09007CCE0FBA32C
:203B8200E0FDA3E0FEA3E0FF9007CC74062BF0E43DA3F0E43EA3F0E43FA3F09007CCE0F5F4
:203BA2004FA3E0F550A3E0F551A3E0F5528A008C017E007F009007CCE8254FF0E93550A385
:203BC200F0EE3551A3F0EF3552A3F09007D07422F0E4A3F09007C9E0FDA3E0FEA3E0FF8AB5
:203BE200018C03742229F9E43BFB9007D0E0F54FA3E0F550854F4B85504CC3E54B99E54C11
:203C02009B4003023C8FC002C004E54F2DF8E5503EF98F03888289838BF0125C87FB780021
:203C22007401254BF9E4354CFCE92DF9EC3EFC8F0289828C838AF0125C877C004200EC4208
:203C420003884F8B509007CCE0F553A3E0F554A3E0F555A3E0F556A84FAA507B007C009043
:203C620007CCE82553F0EA3554A3F0EB3555A3F0EC3556A3F07402254BFBE4354CFC90072E
:203C8200D0EBF0ECA3F0D004D002023BE19007CCE0FCA3E0FDA3E0FEA3E0FF8E538F54E4CA
:203CA200F555F556E55345544555455660208C008D017A007B009007CCE55328F0E55439B3
:203CC200A3F0E5553AA3F0E5563BA3F080BFECF4FCEDF4FD9007C9E0FBA3E0FEA3E0FF7494
:203CE200322BF553E43EF5548F558D028553828554838555F0EA124F9874332BFBE43EFEEF
:203D02008B828E838FF0EC024F989007D27402F09007D323F09007D474A3F09007D5743C55
:203D2200F09007D6744DF09007D77450F09007D874FFF09007D9F09007DAF09007DBF090CC
:203D420007DCF09007DDF09007DE74C0F09007DF74A8F09007E07401F09007E17464F09063
:203D620007E274C0F09007E374A8F09007E47401F09007E5F074DFC0E07463C0E07480C044
:203D8200E012526515811581158190089D74A7F07401A3F0E4A3F09008A07436F0E4A3F0AE
:203DA2009001A8F5F0124FB39001A7740EF090089174AEF07401A3F0E4A3F09008947406C5
:203DC200F0E4A3F09001A8F5F0124EFC90089174D2F07407A3F0E4A3F09008947406F0E4A2
:203DE200A3F09001AEF5F0124EFC90089174C2F07401A3F0E4A3F09008947404F0E4A3F0D5
:203E02009001C6F5F0124EFC90089174DEF07407A3F0E4A3F09008947404F0E4A3F090017C
:203E2200C2F5F0124EFC9001CAE0FE7F009001CBE07C004207EC42069001CCE0FC7D00904A
:203E420001CDE07A004205EA42048C039001CAEBF09001CBEDF08E059001CCEDF09001CD98
:203E6200EFF0900783E0FCA3E0FDA3E0FEA3E0FF9007E6ECF0EDA3F0EEA3F0EFA3F0900775
:203E820087E0F8A3E0F9A3E0FAA3E0FB9007EAE8F0E9A3F0EAA3F0EBA3F08F049001CEEC9C
:203EA200F09007E6E0FCA3E0FDA3E0FEA3E08E039001CFEBF08D039001D0EBF09001D1EC4D
:203EC200F09007EAE0FCA3E0FDA3E0FEA3E09001D2F08E039001D3EBF08D039001D4EBF01C
:203EE2009001D5ECF090606475F080125C6FAE82AF8374282EFCE43F9001B8F09001B9ECAE
:203F0200F09001D77419F09001D874FFF09001D9F09001D67450F09008917464F07460A321
:203F2200F07480A3F0900894EEF0EFA3F09001DE75F000C007C006124EFC9001A875F00021
:203F42001238B99001A875F000123A23D006D00774372EFEE43FFF90018CEEF0EFA3F0909C
:203F620001A775F0001231629008DE7403F0229007EE7402F09007EF23F09007F074A3F07C
:203F82009007F1743CF09007F2744DF09007F37450F09007F474FFF09007F5F09007F6F098
:203FA2009007F7F09007F8F09007F9F09007FA74C0F09007FB74A8F09007FC7401F09007A0
:203FC200FD7464F09007FE74C0F09007FF74A8F09008007401F0900801F074F2C0E074635C
:203FE200C0E07480C0E012526515811581158190089D74A7F07401A3F0E4A3F09008A07495
:2040020036F0E4A3F09001A8F5F0124FB39001A7740EF090089174AEF07401A3F0E4A3F06B
:204022009008947406F0E4A3F09001A8F5F0124EFC90089174EEF07407A3F0E4A3F090085F
:20404200947406F0E4A3F09001AEF5F0124EFC90089174C2F07401A3F0E4A3F090089474FB
:2040620004F0E4A3F09001C6F5F0124EFC90089174FAF07407A3F0E4A3F09008947404F09B
:20408200E4A3F09001C2F5F0124EFC9001CAE0FE7F009001CBE07C004207EC42069001CCC9
:2040A200E0FC7D009001CDE07A004205EA42048C039001CAEBF09001CBEDF08E059001CC88
:2040C200EDF09001CDEFF09001CEE0FF7E007D008F047F009001CFE0F8790089038802E4CE
:2040E2004207E94206EA4205EB42049001D0E0F879007A008A0389028801E44207E94206B7
:20410200EA4205EB42049001D1E0F8E4F9FAFBE84207E94206EA4205EB42049001D2E0F830
:2041220079007B0088248B218B228B239001D3E0F889038802E44221E94222EA4223EB4274
:20414200249001D4E0F879007A008A0389028801E44221E94222EA4223EB42249001D5E0EE
:20416200F8E4F9FAFBE5224201E5234202E524420374012FF521E43EF522E43DF523E43C43
:20418200F524900783E8F0E9A3F0EAA3F0EBA3F0900787E521F0E522A3F0E523A3F0E52449
:2041A200A3F08B079001CEEFF08A079001CFEFF089079001D0EFF09001D1E8F0AF2490015C
:2041C200D2EFF0AF239001D3EFF0AF229001D4EFF0AF219001D5EFF09001B8E4F09001B986
:2041E2007428F09001D77410F09001D874FFF09001D9F09001D67450F09001A875F0001264
:2042020038B99001A875F000123A2390018C7437F0E4A3F09001A7F5F01231629008DE74C3
:2042220005F0229008027402F090080323F090080474A3F0900805743CF0900806744DF088
:204242009008077450F090080874FFF0900809F090080AF090080BF090080CF090080DF027
:2042620090080E74C0F090080F74A8F09008107401F09008117464F090081274C0F09008DB
:204282001374A8F09008147401F0900815F09001B7E0FE7F009001B8E07C004207EC420688
:2042A200EF24D8FFEE34FFFE8F258E2674F2C0E07463C0E07480C0E0125265158115811570
:2042C2008190089D74A7F07401A3F0E4A3F09008A07436F0E4A3F09001A8F5F0124FB39091
:2042E20001A7740EF090089174AEF07401A3F0E4A3F09008947406F0E4A3F09001A8F5F0BD
:20430200124EFC9008917402F07408A3F0E4A3F09008947406F0E4A3F09001AEF5F0124E99
:20432200FC90089174C2F07401A3F0E4A3F09008947404F0E4A3F09001C6F5F0124EFC907E
:204342000891740EF07408A3F0E4A3F09008947404F0E4A3F09001C2F5F0124EFC9001CAD0
:20436200E0FC7D009001CBE07A004205EA42049001CCE0FA7B009001CDE079004203E942DC
:20438200028A019001CAE9F09001CBEBF08C039001CCEBF09001CDEDF09001CEE0FD7C0069
:2043A2007B008D027D009001CFE0F8790089078806E44205E94204EE4203EF42029001D084
:2043C200E0F879007E008E0789068801E44205E94204EE4203EF42029001D1E0F8E4F9FE8A
:2043E200FFE84DF52BE94CF52CEE4BF52DEF4AF52E9001D2E0F87F00882A8F278F288F29C9
:204402009001D3E0F889078806E44227E94228EE4229EF422A9001D4E0F879007E008E0723
:2044220089068801E44227E94228EE4229EF422A9001D5E0F8E4F9FEFFE5284201E5294256
:2044420006E52A4207AA25AB26E4FCFDEA252BFAEB352CFBEC352DFCED352EFDEA24FFF56B
:204462002BEB34FFF52CEC34FFF52DED34FFF52E900783E8F0E9A3F0EEA3F0EFA3F0900744
:2044820087E52BF0E52CA3F0E52DA3F0E52EA3F08F059001CEEDF08E059001CFEDF0890576
:2044A2009001D0EDF09001D1E8F0AF2E9001D2EFF0AF2D9001D3EFF0AF2C9001D4EFF0AA7B
:2044C2002B9001D5EAF09001B8E4F09001B97428F09001D77410F09001D874FFF09001D96A
:2044E200F09001D67450F09001A875F0001238B99001A875F000123A2390018C7437F0E465
:20450200A3F09001A7F5F01231629008DE7405F0229008167402F090081723F09008187449
:20452200A3F0900819743CF090081A744DF090081B7450F090081C74FFF090081DF0900877
:204542001EF090081FF0900820F0900821F090082274C0F090082374A8F09008247401F08D
:204562009008257464F090082674C0F090082774A8F09008287401F0900829F074FFC0E01E
:204582007463C0E07480C0E012526515811581158190089D74A7F07401A3F0E4A3F090082C
:2045A200A07436F0E4A3F09001A8F5F0124FB39001A7740EF090089174AEF07401A3F0E445
:2045C200A3F09008947406F0E4A3F09001A8F5F0124EFC9008917416F07408A3F0E4A3F096
:2045E2009008947406F0E4A3F09001AEF5F0124EFC90089174C2F07401A3F0E4A3F09008C6
:20460200947404F0E4A3F09001C6F5F0124EFC9008917422F07408A3F0E4A3F090089474B8
:2046220004F0E4A3F09001C2F5F0124EFC9001CAE0FE7F009001CBE07C004207EC420690FC
:2046420001CCE0FC7D009001CDE07A004205EA42048C039001CAEBF09001CBEDF08E0590E2
:2046620001CCEDF09001CDEFF09001CEE0FF7E007D008F047F009001CFE0F8790089038841
:2046820002E44207E94206EA4205EB42049001D0E0F879007A008A0389028801E44207E973
:2046A2004206EA4205EB42049001D1E0F8E4F9FAFBE84207E94206EA4205EB42049001D21B
:2046C200E0F879007B0088328B2F8B308B319001D3E0F889038802E4422FE94230EA4231C2
:2046E200EB42329001D4E0F879007A008A0389028801E4422FE94230EA4231EB423290018B
:20470200D5E0F8E4F9FAFBE5304201E5314202E532420374012FF52FE43EF530E43DF531B4
:20472200E43CF5328B079001CEEFF08A079001CFEFF089079001D0EFF09001D1E8F0AF32A5
:204742009001D2EFF0AF319001D3EFF0AF309001D4EFF0AF2F9001D5EFF09001B8E4F090FF
:2047620001B97428F09001D77412F09001D874FFF09001D9F09001D67450F09001A875F034
:20478200001238B99001A875F000123A2390018C7437F0E4A3F09001A7F5F012316290087E
:2047A200DE7401F02290082A7402F090082B23F090082C74A3F090082D743CF090082E742A
:2047C2004DF090082F7450F090083074FFF0900831F0900832F0900833F0900834F0900872
:2047E20035F090083674C0F090083774A8F09008387401F09008397464F090083A74C0F001
:2048020090083B74A8F090083C7401F090083DF07469C0E07466C0E07480C0E01252651550
:20482200811581158190640F75F080125C6FAE82AF8390089D74A7F07401A3F0E4A3F09053
:2048420008A07436F0E4A3F09001A8F5F0C007C006124FB39001A7740EF090089174AEF0F9
:204862007401A3F0E4A3F09008947406F0E4A3F09001A8F5F0124EFCD006D00790089174E6
:204882002AF07408A3F0E4A3F09008947406F0E4A3F09001AEF5F0C007C006124EFCD00686
:2048A200D0079001B47408F09001B5E4F074282EFCE43FFD9001B67445F09001B7E4F5F06D
:2048C200124F988D039001B8F5F0EB124F989001B9EC124F989001BAE4124F989001BBF5A3
:2048E200F0124F989001BCF5F07440124F989001BDE4124F989001BEF5F07440124F989052
:2049020001BF7406124F989001C0E4124F989001C1F5F0124F989008917436F07408A3F032
:20492200E4A3F09008947404F0E4A3F09001C2F5F0C007C006124EFCD006D0079008917488
:204942003AF07408A3F0E4A3F09008947404F0E4A3F09001C6F5F0C007C006124EFC9001E4
:20496200B675F0001238B9D006D0079001CAE0FC7D009001CBE07A004205EA42048D458C2B
:20498200469001CCE0FA7B009001CDE079004203E942028B338A349001CEE0F879007A004E
:2049A2007B0088388B358B368B379001CFE0F87B00893C883B8B398B3A9001D0E0F87B00FF
:2049C2008A40893F883E8B3D9001D1E0FB8B418A428A438A44A835A936E53B4537FAAB3810
:2049E200E53E4201E541420008B8000909B900050ABA00010BAD349001CAEDF0AD339001FD
:204A0200CBEDF0AD469001CCEDF0AD459001CDEDF09001CEE4F09001CFF09001D07403F047
:204A22009001D174E8F08B059001D2EDF08A059001D3EDF089059001D4EDF09001D5E8F018
:204A42009001D67450F09001D77418F09001D874FFF09001D9F09001DAE4F09001DBF09004
:204A620001DCF09001DDF09001A8F5F0C007C006123A23D006D007900891740FF07464A32B
:204A8200F07480A3F0900894EEF0EFA3F09001DE75F000C007C006124EFCD006D007900116
:204AA2008C74372EF0E43FA3F09001A775F00002316290083E7402F090083F23F0900840B9
:204AC20074A3F0900841743CF0900842744DF09008437450F090084474FFF0900845F0909E
:204AE2000846F0900847F0900848F0900849F090084A74C0F090084B74A8F090084C7401B8
:204B0200F090084D7464F090084E74C0F090084F74A8F09008507401F0900851F07478C027
:204B2200E07466C0E07480C0E012526515811581158190089D74A7F07401A3F0E4A3F090AB
:204B420008A07436F0E4A3F09001A8F5F0124FB39001A7740EF09001D77410F090018C7451
:204B620037F0E4A3F09001A7F5F00231629008527402F090085323F090085474A3F090080A
:204B820055743CF0900856744DF09008577450F090085874FFF0900859F090085AF090082E
:204BA2005BF090085CF090085DF090085E74C0F090085F74A8F09008607401F090086174F8
:204BC20064F090086274C0F090086374A8F09008647401F0900865F07481C0E07466C0E0FD
:204BE2007480C0E0125265158115811581900866740EF0900867E4F0900868F0900869F070
:204C020090086AF090086BF090086CF090086DF090086EF090086FF0900870F0900871F0E6
:204C2200900872F0900873F0900874F0900875F0900876F0900877F0900878F0900879F086
:204C420090087AF090087BF090087CF090087DF090087EF090087FF0900880F0900881F026
:204C6200900882F0900883F0900884F0900885F0900886F0900887F0900888F0900889F0C6
:204C820090088AF090088BF090088CF090088DF090088EF090088FF0900890F090089174E2
:204CA20058F07408A3F0E4A3F09008947406F0E4A3F0900867F5F0124EFC9008917452F0F8
:204CC2007408A3F0E4A3F09008947406F0E4A3F090086DF5F0124EFC9008737408F09008EA
:204CE200747406F0900875E4F090087604F09008777408F0900878E4F09008797406F09087
:204D0200087A7404F090087BE4F090087C04F09008917452F07408A3F0E4A3F090089474B3
:204D220006F0E4A3F090087DF5F0124EFC900891745EF07408A3F0E4A3F09008947404F0A9
:204D4200E4A3F0900883F5F0124EFC900899E4F090089A7406F0E4A3F0900887F5F0124F01
:204D6200709008917462F07408A3F0E4A3F09008947404F0E4A3F090088DF5F0124EFC904B
:204D8200018C742BF0E4A3F0900866F5F0023162123522AE82AF83EE4F7001229001B3E047
:204DA200FC7D009001B4E0FB7A004205EA4204BD060FBC080C9001BCE0FBBB010302374A5B
:204DC20022BD0005BC08028001229001BEE0FDBD06028001229001D6E0FD30E423ED30E078
:204DE2001F748EC0E07466C0E07480C0E0125265158115811581123F719008DE7404F02295
:204E0200ED30E126C007C006C00574ADC0E07466C0E07480C0E0125265158115811581D0F0
:204E220005D006D0079008DEE4F09008DEE0FC24FA500122EC2C2C904E3D73024E4F024ED0
:204E420070024E94024ECE024EFB024EF2C00574C8C0E07466C0E07480C0E0125265158143
:204E620015811581D005ED20E10122024513C00574D1C0E07466C0E07480C0E0125265152E
:204E82008115811581D005ED30E46E9008DE7402F022C007C006C00574E0C0E07466C0E061
:204EA2007480C0E0125265158115811581D005D006D007ED30E00A124AB49008DE7403F05B
:204EC20022C374369EE49F5030024225C00574EEC0E07466C0E07480C0E0125265158115EE
:1A4EE200811581D005ED30E4109008DE7404F022123D0C9008DE7404F0225E
:20605400747269616C6172707265706C790A0D00485454502F312E3120323030204F4B0D12
:206074000A436F6E74656E742D547970653A20746578742F68746D6C0D0A436F6E74656ED7
:20609400742D4C656E6774683A203533300D0A0D0A3C21444F43545950452068746D6C3E41
:2060B4003C68746D6C206C616E673D27656E273E3C686561643E3C6D6574612063686172D0
:2060D4007365743D275554462D38273E3C6D657461206E616D653D2776696577706F7274BB
:2060F4002720636F6E74656E743D2777696474683D6465766963652D77696474682C206917
:206114006E697469616C2D7363616C653D312E30273E3C7469746C653E45746865726E651D
:206134007420576562205365727665723C2F7469746C653E3C7374796C653E626F647920BE
:206154007B666F6E742D66616D696C793A20417269616C2C2073616E732D73657269663B85
:20617400206261636B67726F756E642D636F6C6F723A20236630663066303B207465787420
:206194002D616C69676E3A2063656E7465723B2070616464696E673A20323070783B7D68E2
:2061B40031207B636F6C6F723A20233333333333333B7D70207B636F6C6F723A2023363666
:2061D400363636363B7D3C2F7374796C653E3C2F686561643E3C626F64793E3C68313E4586
:2061F40053442046414C4C20323032343C2F68313E3C703E45746865726E6574206261730C
:206214006564205765622053657276657220666F7220456D62656464656420537973746503
:206234006D73202D204E414447495220616E64204B4F505041206D6164652069747474744A
:206254002C206C657373676F6F6F6F21212120546869732077656220736572766572207341
:20627400686F7763617365732074686520706F776572206F66206D6963726F636F6E7472AA
:206294006F6C6C65727320616E642045746865726E657420636F6D6D756E69636174696F7F
:2062B4006E2E204279206C657665726167696E6720746865204154383943353152433220F8
:2062D4006D6963726F636F6E74726F6C6C657220616E642074686520454E4332384A363088
:2062F4002045746865726E657420636F6E74726F6C6C65722C2077652063616E20736572E3
:2063140076652064796E616D69632077656220706167657320616E6420636F6E74726F6C87
:2063340020656D62656464656420646576696365732072656D6F74656C792E2054686520DC
:2063540073657276657220616C6C6F7773207365616D6C65737320636F6D6D756E69636187
:2063740074696F6E206265747765656E20686172647761726520616E6420736F66747761D0
:2063940072652C20656E61626C696E67207265616C2D74696D652064617461206578636864
:2063B400616E6765206163726F737320746865206E6574776F726B2E3C2F703E3C2F626F75
:2063D40064793E3C2F68746D6C3E006D616B6554637046696E50736841636B0A0D006D612F
:2063F4006B6554637041636B0A0D006D616B6554637053796E41636B0A0D00485454502FD8
:20641400312E3120323030204F4B0D0A436F6E74656E742D547970653A20746578742F68F5
:20643400746D6C0D0A436F6E74656E742D4C656E6774683A203533300D0A0D0A3C21444F6A
:2064540043545950452068746D6C3E3C68746D6C206C616E673D27656E273E3C6865616473
:206474003E3C6D65746120636861727365743D275554462D38273E3C6D657461206E616D81
:20649400653D2776696577706F72742720636F6E74656E743D2777696474683D64657669F4
:2064B40063652D77696474682C20696E697469616C2D7363616C653D312E30273E3C7469FE
:2064D400746C653E456C656374726F6E69637320547265653C2F7469746C653E3C73747993
:2064F4006C653E626F6479207B666F6E742D66616D696C793A20417269616C2C2073616EF9
:20651400732D73657269663B206261636B67726F756E642D636F6C6F723A2023663066303E
:2065340066303B20746578742D616C69676E3A2063656E7465723B2070616464696E673A12
:2065540020323070783B7D6831207B636F6C6F723A20233333333333333B7D70207B636F6E
:206574006C6F723A20233636363636363B7D3C2F7374796C653E3C2F686561643E3C626F1F
:2065940064793E3C68313E4553442046414C4C20323032343C2F68313E3C703E57656C63FF
:2065B4006F6D6520746F20456C656374726F6E69637320547265652C207768657265206F42
:2065D4007572206E616D652069736E2774206A7573742061207469746C65EFBFBD697427E2
:2065F40073206120636F6D6D69746D656E7420746F2070726163746963616C2067726F7781
:20661400746820696E20796F7572206B6E6F776C6564676520616E6420736B696C6C732E91
:20663400205468696E6B206F66206974206C696B6520706C616E74696E6720612073656516
:20665400642E3C2F703E3C2F626F64793E3C2F68746D6C3E0068747470726573706F6E73FC
:20667400650A0D0074637061636B0A0D00726566726573686172700A0D0054435028414321
:206694004B5F46494E29207061636B65742064657465637465640A0D005443502853594E1C
:2066B40029207061636B65742064657465637465640A0D006C697374656E0A0D0073796E8C
:2066D4002072656365697665640A0D0065737461626C69736865640A0D0066696E20776154
:0566F40069740A0D00AD
:016704000094
:06206300E478FFF6D8FD51
:204EFC00AFF0AE83E582900896F0EEA3F0EFA3F0900896E0F547A3E0F548A3E0F549AA4782
:204F1C00AB48AC49900891E0F8A3E0F9A3E0FF900894E0F54AA3E0F54BAD4AAE4B154A74BD
:204F3C00FFB54A02154BED4E6020888289838FF0125C87FEA3A882A9838A828B838CF0EE35
:144F5C00124F98A3AA82AB8380CF8547828548838549F0227E
:204F7000AC82AD8390089AE0FEA3E0FFBE000360121F0F900899E08C828D83124F98A3DE27
:084F9000FADFF88C828D832208
:202041007901E94400601B7A0190670478DE75A008E493F2A308B8000205A0D9F4DAF275F3
:02206100A0FFDE
:1B4F980020F71130F6138883A88220F509F6A8837583002280FEF280F5F02218
:204FB300AFF0AE83E5829008A2F0EEA3F0EFA3F09008A0E0FEA3E0FF4E602F9008A2E0FBF0
:204FD300A3E0FCA3E0FD90089DE0F8A3E0F9A3E0FAC000C001C0028B828C838DF0122006A5
:204FF300158115811581600280189008A2E0F547A3E0F548A3E0F54985478285488385499F
:20501300F022C006C007884789488A4985474A85484B85494C8B008C018D07C000C001C036
:2050330007854A82854B83854CF0122006158115811581D007D0065056EE2547F54FEF35E2
:2050530048F550854951EE2BF54AEF3CF54B8D4C8E4D8F4E154A74FFB54A02154B154F7432
:20507300FFB54F021550854F828550838551F0125C87854A82854B83854CF0124F98154D8A
:2050930074FFB54D02154EE54D454E70C7803AA847A948AA498E4F8F50888289838AF0123C
:2050B3005C87FFA3A882A9838B828C838DF0EF124F98A3AB82AC83E54F24FFF54FE550347E
:1B50D300FFF550E54F455070D09008A2E0FDA3E0FEA3E0FF8D828E838FF0229A
:2050EE00C014858114E51424FDF8868318868218E493A324DB600C242560051251DC80F07F
:20510E000251F4D2D5E493A3C083C082B4731486F018868318868218125C876054A312513B
:20512E00DC80F5B4630818E6181251DC8043B46417E630E74618E6F42401F608E6F4340044
:20514E00F6742D1251DC8033B4782D868318868218E41251CDE5831251CCE5831251CDE5F6
:20516E00821251CCE5821251CD30D50574301251DCD082D0830250FEB475F6E6FA18E6F901
:20518E00187C107D271251B7FF7CE87D031251B7C4F5837C647D001251B74283E975F00AD2
:2051AE0084C445F0F582EF80A97B000BC3E99CF9EA9DFA50F61BE92CF9EA3DFAEB22C454D8
:2051CE000F700320D51FC2D52490D43440D4C083C082C0F0F582E8C0E0123241D0E0F8D093
:0951EE00F0D082D08322D01422FB
:2051F700AA83AB828BF09008A5E0A4F8A9F08AF0E0A429F98BF0A3E0A429F58388822222C0
:202069007800E84400600A790075A001E4F309D8FC78DEE84407600C7908900100E4F0A388
:04208900D8FCD9FAAC
:20521700C0148581147E008E83123241D01422AFF0AE83E5829008A8F0EEA3F0EFA3F09075
:2052370008A8E0FDA3E0FEA3E0FF9008A7E0FC9008BCE4F0A3F0A3F09008BFEDF0EEA3F0A9
:20525700EFA3F09008C2ECF090521702536BC014E581F51424FBFF9008BCE4F0A3F0A3F017
:20527700E51424FBF89008BFE6F008E6A3F008E6A3F09008C2EFF090521712536BD01422D0
:20529700E5829008B8F0E0FF9008AEE0C0E0A3E0C0E0A3E0C0E01252B2800D9008ACE0C0DE
:2052B700E0A3E0C0E08F82221581158115819008B6E02401F0A3E03400F022E5829008B91B
:2052D700F0E02430FF24C6500D74072FFF9008ABE060034307208F82025297E5829008BAFF
:2052F700F0E0FFC4540FF582C0071252D2D00753070F8F820252D2E5829008BBF09008B1C3
:20531700E0FCA3E0FDA3E0FEA3E0FF9008B5E0FB9008BBE0FA79208B00E828F547EF2354EC
:20533700014547FBEC2CFCED33FDEE33FEEF33FFC3EB9A4007EBC39AFB43040119E970D7FA
:205357009008B1ECF0EDA3F0EEA3F0EFA3F09008B5EBF022AF83E5829008C3F0EFA3F0904E
:2053770008C3E0FEA3E0FF9008ACEEF0EFA3F09008BCE0FDA3E0FEA3E0FF9008AEEDF0EE02
:20539700A3F0EFA3F09008B6E4F0A3F09008BFE0FDA3E0FEA3E0FF8D828E838FF0125C8761
:2053B700FC9008BF74012DF0E43EA3F0EFA3F0EC7003025C63BC25028003025C5B9008C51E
:2053D700E4F09008C6F09008C7F09008C8F09008C9F09008CAF09008CBF09008CCF0900813
:2053F700CEF09008CFF0A3F09008D114F0A3F09008BFE0FDA3E0FEA3E0FF8D828E838FF018
:20541700125C87FBA3AD82AE839008BFEDF0EEA3F0EFA3F09008D5EBF0BB25088B821252AA
:20543700970253A3BB30005003025504EB24C650030255049008D1E0F515A3E0F51674FF56
:20545700B51563B51660C005C006C0079008CFE0FAA3E0FF9008A5EAF0EFA3F090000AC0D5
:2054770005C0031251F7AE82AF83D003D0058B057A00ED2EFEEA3FFFEE24D0FEEF34FFFF9D
:205497009008CFEEF0EFA3F0D007D006D0059008CFE0F5F0A3E045F060030254119008C6A0
:2054B7007401F0025411C005C006C0079008A5E515F0E516A3F090000AC006C005C0031208
:2054D70051F7AA82AF83D003D005D0067E00EB2AFAEE3FFFEA24D0FAEF34FFFF9008D1EA8C
:2054F700F0EFA3F0D007D006D0050254119008D5E0FBBB2E2FC005C006C0079008D1E0FA45
:20551700A3E0FFBAFF05BFFF028009D007D006D005025411D007D006D0059008D1E4F0A3A0
:20553700F0025411BB61004014EB2485400F9008D574DF5BF09008AB7401F080059008AB2F
:20555700E4F09008D5E0FBBB20028075BB2B028067BB2D028059BB4202806FBB4302807CCA
:20557700BB44030257FBBB4603025821BB4803025411BB49030257FBBB4A03025411BB4C01
:20559700028050BB4F03025809BB5003025769BB53028077BB5403025411BB5503025811E4
:2055B700BB5803025819BB5A030254110258299008C57401F00254119008C77401F0025406
:2055D700119008C87401F00254119008CA7401F00254119008CB7401F00254119008CAE0D8
:2055F700600E9008C2E014F9F09008D5E7F0800F9008C2E024FEFFF08F019008D5E7F0906D
:2056170008D5E0F5821252970258389008C2E024FDFFF08F0187050987060987071919905D
:2056370008B1EDF0EEA3F0EFA3F08D828E838FF0125C6F8582158583169008D1E0FAA3E03E
:20565700FDBAFF0DBDFF0A9008D1E515F0E516A3F09008C5E0704B9008CFE0FAA3E0FDC34D
:20567700E5159AE5169D503A9008CFEAC39515F0ED9516A3F09008CFE0FAA3E0FD8A068DA6
:20569700071ABAFF011DEE4F6010758220C005C002125297D002D00580E39008CFEAF0ED7D
:2056B700A3F09008D1E0F518A3E0F5199008B1E0FAA3E0FDA3E0FF8A828D838FF0125C87A4
:2056D700F517603CC3E4951874808519F063F08095F0502C151874FFB518021519851782A6
:2056F7001252979008B1E0FAA3E0FDA3E0FF0ABA00010D9008B1EAF0EDA3F0EFA3F080AC50
:205717009008C5E070030258389008CFE0FEA3E0FFC3E5159EE5169F40030258389008CF38
:20573700EEC39515F0EF9516A3F09008CFE0FEA3E0FF8E028F051EBEFF011FEA4D70030248
:205757005830758220C007C006125297D006D00780E09008C2E024FDFDF08D01871A0987F7
:205777001B09871C19199008B1E51AF0E51BA3F0E51CA3F09008B3E0FDBD80004008900875
:20579700D57443F08020BD600040089008D57450F08013BD400040089008D57449F08006D8
:2057B7009008D57458F09008D5E0FDF582C00512529775823A1252977582301252977582E3
:2057D70078125297D005BD4902800EBD500280099008B2E0F5821252F29008B1E0F5821293
:2057F70052F2803D9008C97401F09008CE740AF0802F9008CE7408F080279008CE740AF0FB
:20581700801F9008CE7410F080179008CC7401F0800F8B8212529780089008CFEEF0EFA3A2
:20583700F09008CCE060719008C2E024FCFFF08F018703098705098706098707191919904C
:2058570008B1EBF0EDA3F0EEA3F0EFA3F09008B174F9F07466A3F07480A3F09008B1E0F562
:205877001AA3E0F51BA3E0F51C7401251AFAE4351BFBAF1C9008B1EAF0EBA3F0EFA3F08580
:205897001A82851B83851CF0125C87FF70030253A38F8212529780C39008CEE070030253E5
:2058B700A39008CAE060479008C2E014F9F087077E007D007B009008B1EFF0EEA3F0EDA3D1
:2058D700F0EBA3F09008C9E0600302597B9008B1E0FBA3E0A3E0A3E07D007E007F0090080A
:2058F700B1EBF0EDA3F0EEA3F0EFA3F080769008CBE060289008C2E024FCFFF08F0187035E
:205917000987050987060987071919199008B1EBF0EDA3F0EEA3F0EFA3F080489008C2E0BA
:2059370024FEFFF08F01870609870719EF3395E0FDFB9008B1EEF0EFA3F0EDA3F0EBA3F03C
:205957009008C9E0701E9008B1E0FBA3E0FDA3E0A3E07E007F009008B1EBF0EDA3F0EEA385
:20597700F0EFA3F09008C9E0603D9008B1E0A3E0A3E0A3E030E72B9008B1E0FBA3E0FDA385
:20599700E0FEA3E0FFC3E49BFBE49DFDE49EFEE49FFF9008B1EBF0EDA3F0EEA3F0EFA3F02C
:2059B70080059008C9E4F09008CD7401F09008CEE0F518751DDB751E08E4F515F516900860
:2059D700B5E4F085188212530E9008CDE070339008B5E0C454F0F51A9008B5E0C4540F45D0
:2059F7001AF51A851D82851E83E0FFE51A4207851D82851E83EFF0151D74FFB51D02151E21
:205A1700800B9008B5E0851D82851E83F00515E4B5150205169008CDE0B40100E433F09007
:205A370008B1E0FAA3E0FBA3E0FEA3E0FFEA4B4E4F708B9008DCE51DF0E51EA3F09008D307
:205A5700E515F0E516A3F09008CFE0F5F0A3E045F070099008CF7401F0E4A3F09008C6E0D9
:205A7700FFE070479008C5E0704185151D85161E9008CFE0FAA3E0FBC007AF1D0F8F067FA6
:205A970000C3EE9AEF9BD0075019758220C007C003C002125297D002D003D0071ABAFF012C
:205AB7001B80D59008CFEAF0EBA3F09008C9E0602075822DC007125297D0079008CFE024B7
:205AD700FFFDA3E034FFFE9008CFEDF0EEA3F080569008D3E0F5F0A3E045F0604A9008C773
:205AF700E0602075822BC007125297D0079008CFE024FFFDA3E034FFFE9008CFEDF0EEA384
:205B1700F080249008C8E0601E758220C007125297D0079008CFE024FFFDA3E034FFFE90C1
:205B370008CFEDF0EEA3F09008C5E070449008D3E0F51DA3E0F51E9008CFE0FAA3E0FBC0B6
:205B5700078A068B071ABAFF011BC3E51D9EE51E9FD007504FEF60047E3080027E208E826A
:205B7700C007C003C002125297D002D003D00780CE9008CFE0FEA3E0FF9008D3E0F51DA336
:205B9700E0F51EC3E51D9EE51E9F500F9008CFEEC3951DF0EF951EA3F080119008CFE4F0DC
:205BB700A3F080089008CFEAF0EBA3F09008DCE0FEA3E0FF9008D3E0F51DA3E0F51EAA1D66
:205BD700AD1E151D74FFB51D02151EEA4D60449008CDE0B40100E433F09008CDE070130E85
:205BF700BE00010F8E828F83E0C4540F9008B5F0800E8E828F83E0FD53050F9008B5EDF03C
:205C17009008B5E0F582C007C0061252D2D006D00780AB9008C5E070030253A39008CFE03F
:205C3700FEA3E0FF8E038F051EBEFF011FEB4D70030253A3758220C007C006125297D00695
:185C5700D00780E08C821252970253A39008B6E0FEA3E08E82F58322A4
:0B66F9003C4E4F20464C4F41543E00E9
:185C6F00AA82AB83125C876003A380F8C3E5829AF582E5839BF5832278
:20200600E58124FCC3C8C0E0C082E608467006E5824583601218E58296F58208E5839642A8
:1B2026008208E5F0964582D082C8D0E0C822758156125CA3E5826003022003E3
:1C5C870020F71430F6148883A88220F507E6A88375830022E280F7E49322E0222C
:045CA30075820022E4
:00000001FF
